:100000000C945D000C9485000C9485000C94850084
:100010000C9485000C9485000C9485000C9485004C
:100020000C9485000C9485000C9485000C9485003C
:100030000C9485000C9485000C9485000C9485002C
:100040000C9422030C9485000C9492030C946C0382
:100050000C9485000C9485000C9485000C9485000C
:100060000C9485000C9485000000000024002700FB
:100070002A0000000000250028002B0004040404CE
:100080000404040402020202020203030303030342
:10009000010204081020408001020408102001021F
:1000A00004081020000000080002010000030407FB
:1000B0000000000000000000C40311241FBECFEFA9
:1000C000D8E0DEBFCDBF11E0A0E0B1E0E8EAFDE09E
:1000D00002C005900D92A831B107D9F721E0A8E13F
:1000E000B1E001C01D92A73EB207E1F710E0CDE5F7
:1000F000D0E004C02197FE010E94C706CC35D1078D
:10010000C9F70E9407040C94D2060C94000090E0FA
:10011000FC01EC55FF4F2491FC01E057FF4F349157
:10012000FC01E458FF4FE491EE2309F43CC0222384
:1001300039F1233091F038F42130A9F0223001F563
:1001400084B58F7D12C0273091F02830A1F0243083
:10015000B9F4809180008F7D03C0809180008F77FB
:10016000809380000DC084B58F7784BD09C08091D5
:10017000B0008F7703C08091B0008F7D8093B00076
:10018000F0E0EE0FFF1FEE58FF4FA591B4919FB71F
:10019000F894611104C08C913095382302C0EC9121
:1001A0003E2B3C939FBF0895CF93DF9390E0FC01DB
:1001B000E057FF4F2491FC01E458FF4F84918823BE
:1001C00061F190E0880F991FFC01E859FF4FC5913C
:1001D000D491FC01EE58FF4FA591B491611109C073
:1001E0009FB7F8948881209582238883EC912E23F1
:1001F0000BC0623061F49FB7F8948881322F30953C
:1002000083238883EC912E2B2C939FBF06C08FB73E
:10021000F894E8812E2B28838FBFDF91CF9108952A
:10022000EF92FF920F931F93CF93DF9397FF06C038
:10023000919581959109EE24E39401C0E12CEC01A4
:10024000C13981E0D80714F0C0E9D1E0F090DF01B6
:1002500089E0F81209C08091E4018A3029F4D09332
:100260008900C093880060C023E32C9FC0012D9FAC
:10027000900D112460E570E00E947D068B0161E025
:100280008F2D0E94D4000115110509F447C00F3FBE
:10029000110509F445C0EF2DF0E0EC55FF4FE49156
:1002A000E330F9F048F4E130B9F0E230A1F584B57B
:1002B000806284BD08BD38C0E730E9F0E83019F14C
:1002C000E43049F580918000806280938000109333
:1002D0008B0000938A0028C084B5806884BD07BD68
:1002E00023C08091800080688093800010938900F3
:1002F0000093880019C08091B00080688093B0009E
:100300000093B30011C08091B00080628093B00070
:100310000093B40009C00038110514F460E001C076
:1003200061E08F2D0E948700CD2B11F460E00AC0A0
:10033000EE2039F060E08091DD010E94870061E0ED
:1003400006C061E08091DD010E94870060E080913D
:10035000DE01DF91CF911F910F91FF90EF900C94F0
:1003600087003FB7F89480913C0190913D01A091A6
:100370003E01B0913F0126B5A89B05C02F3F19F063
:100380000196A11DB11D3FBFBA2FA92F982F882715
:10039000820F911DA11DB11DBC01CD0142E0660F70
:1003A000771F881F991F4A95D1F708958F929F92C2
:1003B000AF92BF92CF92DF92EF92FF926B017C01DE
:1003C0000E94B1014B015C01C114D104E104F104AC
:1003D000F1F00E94B101DC01CB0188199909AA0949
:1003E000BB09883E9340A105B10570F321E0C21A14
:1003F000D108E108F10888EE880E83E0981EA11C60
:10040000B11CC114D104E104F10419F7DDCFFF9050
:10041000EF90DF90CF90BF90AF909F908F90089516
:10042000CF92DF92EF92FF920F931F93CF93DF93C0
:100430006C017A018B01C0E0D0E0CE15DF0581F0C0
:10044000D8016D918D01D601ED91FC910190F08163
:10045000E02DC6010995892B11F02196EECF7E0182
:10046000C701DF91CF911F910F91FF90EF90DF9027
:10047000CF900895089580E090E00895FC01538D99
:10048000448D252F30E0842F90E0821B930B54176E
:1004900010F0CF96089501970895FC01918D828DFB
:1004A000981761F0828DDF01A80FB11D5D968C91C8
:1004B000928D9F5F9F73928F90E008958FEF9FEFD3
:1004C0000895FC01918D828D981731F0828DE80F8F
:1004D000F11D858D90E008958FEF9FEF0895FC0149
:1004E000918D228D892F90E0805C9F4F821B910916
:1004F0008F739927089580E491E00E946F0221E0B4
:10050000892B09F420E0822F0895FC01848DDF01FE
:10051000A80FB11DA35ABF4F2C91848D90E0019676
:100520008F739927848FA689B7892C93A089B18965
:100530008C91837080648C93938D848D981306C006
:100540000288F389E02D80818F7D80830895EF926A
:10055000FF920F931F93CF93DF93EC0181E0888F7D
:100560009B8D8C8D981305C0E889F989808185FD64
:1005700026C0F62E0B8D10E00F5F1F4F0F73112753
:10058000E02E8C8DE8120CC00FB607FCFACFE8897C
:10059000F989808185FFF5CFCE010E948502F1CFD8
:1005A0008B8DFE01E80FF11DE35AFF4FF0829FB7DC
:1005B000F8940B8FEA89FB89808180620AC09FB71B
:1005C000F894EE89FF896083E889F98980818370D6
:1005D000806480839FBF81E090E0DF91CF911F9185
:1005E0000F91FF90EF900895CF93DF93EC01888DEA
:1005F0008823C9F0EA89FB89808185FD05C0A88927
:10060000B9898C9186FD0FC00FB607FCF5CF8081AC
:1006100085FFF2CFA889B9898C9185FFEDCFCE01F6
:100620000E948502E7CFDF91CF91089580E090E0AE
:10063000892B29F00E947B0281110C9400000895FF
:100640000E94CD061F920F920FB60F9211242F9386
:100650003F938F939F93AF93BF9380913801909175
:100660003901A0913A01B0913B013091370123E06B
:10067000230F2D3720F40196A11DB11D05C026E8DA
:10068000230F0296A11DB11D2093370180933801DD
:1006900090933901A0933A01B0933B0180913C01C2
:1006A00090913D01A0913E01B0913F010196A11DA5
:1006B000B11D80933C0190933D01A0933E01B09306
:1006C0003F01BF91AF919F918F913F912F910F90DB
:1006D0000FBE0F901F9018951F920F920FB60F929A
:1006E00011242F933F934F935F936F937F938F9337
:1006F0009F93AF93BF93EF93FF9380E491E00E94A9
:100700008502FF91EF91BF91AF919F918F917F9162
:100710006F915F914F913F912F910F900FBE0F906E
:100720001F9018951F920F920FB60F9211242F93BE
:100730008F939F93EF93FF93E0915001F0915101BC
:100740008081E0915601F091570182FD12C09081A5
:10075000809159018F5F8F7320915A01821751F058
:10076000E0915901F0E0E05CFE4F958F80935901D4
:1007700001C08081FF91EF919F918F912F910F90F8
:100780000FBE0F901F901895E0E4F1E013821282E3
:1007900088EE93E0A0E0B0E084839583A683B783DE
:1007A00086E091E09183808385EC90E09587848753
:1007B00084EC90E09787868780EC90E0918B808B2B
:1007C00081EC90E0938B828B82EC90E0958B848B14
:1007D00086EC90E0978B868B118E128E138E148E82
:1007E000EDEDF1E082E0808384E0818389E0828323
:1007F00086E083838EE0848387E0858388E0868338
:100800008AE087838CE080878FE081870895CF938B
:10081000DF93CDB7DEB7A1970FB6F894DEBF0FBE5A
:10082000CDBF789484B5826084BD84B5816084BD79
:1008300085B5826085BD85B5816085BD80916E007E
:10084000816080936E0010928100809181008260AF
:1008500080938100809181008160809381008091EC
:1008600080008160809380008091B10084608093DB
:10087000B1008091B00081608093B00080917A00D7
:10088000846080937A0080917A00826080937A00FD
:1008900080917A00816080937A0080917A008068EC
:1008A00080937A001092C100E0915001F0915101C3
:1008B00082E08083E0914C01F0914D011082E09143
:1008C0004E01F0914F018FEC808310925801E0911E
:1008D0005401F091550186E08083E0915201F0913E
:1008E0005301808180618083E0915201F091530136
:1008F000808188608083E0915201F0915301808172
:1009000080688083E0915201F091530180818F7D56
:10091000808361E08DE00E94D40060E08DE00E9461
:10092000870061E08091DD010E94D40061E0809148
:10093000DE010E94D40061E08091DF010E94D400BA
:1009400060E08091E0010E94D40060E08091E101CC
:100950000E94D40061E08091E2010E94D40061E035
:100960008091E3010E94D40061E08091E4010E9443
:10097000D40060E08091E5010E94D40060E08091A5
:10098000E6010E94D4008091DF01893081F48091DA
:10099000E4018A3061F480EA8093800081E18093F1
:1009A000810080E991E0909387008093860088E041
:1009B000EFE2F1E0DF011D928A95E9F787E0E8E2D6
:1009C000F1E0DF011D928A95E9F781E38093280128
:1009D00082E38093290187E380932A0184E591E0F3
:1009E00090932C0180932B018AE590E090932E0147
:1009F00080932D018AE0882E912CA12CB12C4424C7
:100A0000439499E0592EFE0131967F0121E2622E36
:100A10003EE7732ECC24C394D12C80E491E00E9455
:100A20006F02181619060CF058C08091220190919F
:100A3000230109970CF051C080E491E00E944D021F
:100A400080932101282F30E040E050E019A28E0170
:100A50000F5D1F4FCA01B901A50194010E949106C3
:100A6000605DD8016E938D01211531054105510559
:100A700089F7109769F0FD0101900020E9F731979F
:100A8000AF014A1B5B0BBD0180E491E00E941002A4
:100A900042E050E064E171E080E491E00E941002E5
:100AA0008091200120912101882309F420C12E3753
:100AB00009F4EDC08091220190912301FC01E85ED0
:100AC000FE4F20830196909323018093220165E0DD
:100AD00070E080E090E00E94D60180913101909119
:100AE00032018233910581F4809133019091340178
:100AF00080399140F1F4809135019091360188362A
:100B00009140B9F461E012C08A3F910591F480915F
:100B10003301909134018436910559F48091350167
:100B200090913601843B910521F460E08DE00E94B4
:100B3000870080910001909101011816190694F523
:100B4000D701E52D1D92EA95E9F7698279868091B2
:100B500028018A83809129018B8380912A018C83CB
:100B600080912B0190912C019D838E8380912D018A
:100B700090912E019F8388874AE050E0B70180E47E
:100B800091E00E94100268EE73E080E090E00E9425
:100B9000D60180910001909101010197909301018C
:100BA0008093000165E070E080E090E00E94D60153
:100BB0008091260190912701892BF1F40091240165
:100BC000109125010139F1E01F07E4F5C8010E94E9
:100BD000100162E070E080E090E00E94D6010F5FBB
:100BE0001F4F10932501009324010039114051F546
:100BF000D0922701C0922601809126019091270171
:100C0000019701F5009124011091250100378EEF25
:100C10001807D4F1C8010E94100162E070E080E082
:100C200090E00E94D6010150110910932501009314
:100C3000240100371E4F41F582E090E09093270198
:100C40008093260180912601909127010297E1F47B
:100C5000009124011091250110161106ACF0C80175
:100C60000E94100162E070E080E090E00E94D601F6
:100C70000F5F1F4F1093250100932401012B21F4D6
:100C800010922701109226010E941603C6CE1092E0
:100C9000200110922301109222018091180180936B
:100CA0002F01809119018093300180911A01909158
:100CB0001B0198278927982790933201809331014F
:100CC00080911C0190911D01982789279827909366
:100CD00034018093330180911E0190911F01982768
:100CE000892798279093360180933501F0CE2132E1
:100CF00009F0EDCE40922001EACE97FB072E16F4C4
:100D0000009407D077FD09D00E94B30607FC05D0F8
:100D10003EF4909581959F4F0895709561957F4F12
:100D20000895A1E21A2EAA1BBB1BFD010DC0AA1F2C
:100D3000BB1FEE1FFF1FA217B307E407F50720F044
:100D4000A21BB30BE40BF50B661F771F881F991FBF
:100D50001A9469F760957095809590959B01AC0108
:100D6000BD01CF010895AA1BBB1B51E107C0AA1FFB
:100D7000BB1FA617B70710F0A61BB70B881F991F3C
:100D80005A95A9F780959095BC01CD010895EE0F75
:100D9000FF1F0590F491E02D099481E090E0F89414
:080DA0000C94D206F894FFCF79
:100DA800140000000000A70210023E02F4026F02C5
:080DB8004D0261020D0A00006A
:00000001FF
