:100000000C945D000C9485000C9485000C945E04A7
:100010000C9485000C9477040C9485000C94850056
:100020000C9485000C9485000C9485000C9485003C
:100030000C9485000C9485000C9485000C9485002C
:100040000C94BC030C9485000C942C040C940604B2
:100050000C9485000C9485000C9485000C9485000C
:100060000C9485000C9485000000000024002700FB
:100070002A0000000000250028002B0004040404CE
:100080000404040402020202020203030303030342
:10009000010204081020408001020408102001021F
:1000A00004081020000000080002010000030407FB
:1000B0000000000000000000900411241FBECFEFDC
:1000C000D8E0DEBFCDBF11E0A0E0B1E0E2E2FEE0AB
:1000D00002C005900D92A032B107D9F721E0A0E24D
:1000E000B1E001C01D92A03FB207E1F710E0CDE5FD
:1000F000D0E004C02197FE010E940407CC35D1074F
:10010000C9F70E94D3040C940F070C94000090E0F0
:10011000FC01EC55FF4F2491FC01E057FF4F349157
:10012000FC01E458FF4FE491EE2309F43CC0222384
:1001300039F1233091F038F42130A9F0223001F563
:1001400084B58F7D12C0273091F02830A1F0243083
:10015000B9F4809180008F7D03C0809180008F77FB
:10016000809380000DC084B58F7784BD09C08091D5
:10017000B0008F7703C08091B0008F7D8093B00076
:10018000F0E0EE0FFF1FEE58FF4FA591B4919FB71F
:10019000F894611104C08C913095382302C0EC9121
:1001A0003E2B3C939FBF0895CF93DF9390E0FC01DB
:1001B000E057FF4F2491FC01E458FF4F84918823BE
:1001C00061F190E0880F991FFC01E859FF4FC5913C
:1001D000D491FC01EE58FF4FA591B491611109C073
:1001E0009FB7F8948881209582238883EC912E23F1
:1001F0000BC0623061F49FB7F8948881322F30953C
:1002000083238883EC912E2B2C939FBF06C08FB73E
:10021000F894E8812E2B28838FBFDF91CF9108952A
:100220001F93CF93DF93182FEB0161E00E94D4005E
:10023000209711F460E004C0CF3FD10539F461E0AC
:10024000812FDF91CF911F910C948700E12FF0E077
:10025000EC55FF4FE491E330F9F048F4E130B9F0A8
:10026000E230A1F584B5806284BDC8BD34C0E730FA
:10027000E9F0E83019F1E43049F5809180008062BE
:1002800080938000D0938B00C0938A0024C084B5F3
:10029000806884BDC7BD1FC0809180008068809346
:1002A0008000D0938900C093880015C08091B00071
:1002B00080688093B000C093B3000DC08091B000FF
:1002C00080628093B000C093B40005C0C038D105EF
:1002D0000CF0B5CFAFCFDF91CF911F9108953FB70D
:1002E000F89480913E0190913F01A0914001B0911E
:1002F000410126B5A89B05C02F3F19F00196A11D0D
:10030000B11D3FBFBA2FA92F982F8827820F911DAB
:10031000A11DB11DBC01CD0142E0660F771F881FF2
:10032000991F4A95D1F708958F929F92AF92BF92ED
:10033000CF92DF92EF92FF926B017C010E946F01DE
:100340004B015C01C114D104E104F104F1F00E94FD
:100350006F01DC01CB0188199909AA09BB09883E04
:100360009340A105B10570F321E0C21AD108E1085C
:10037000F10888EE880E83E0981EA11CB11CC11400
:10038000D104E104F10419F7DDCFFF90EF90DF9085
:10039000CF90BF90AF909F908F900895CF92DF92B3
:1003A000EF92FF920F931F93CF93DF936C017A012B
:1003B0008B01C0E0D0E0CE15DF0581F0D8016D9152
:1003C0008D01D601ED91FC910190F081E02DC601E7
:1003D0000995892B11F02196EECF7E01C701DF919F
:1003E000CF911F910F91FF90EF90DF90CF900895E4
:1003F000CF93DF93CDB7DEB729970FB6F894DEBF62
:100400000FBECDBFBE016F5F7F4F89E0FB01119230
:100410008A95E9F781E289838EE78987E2E4F1E052
:1004200080818A8381818B8382818C838381948183
:100430009C01220F232F221F330B2D838F778E8356
:10044000858196819C01220F232F221F330B2F833E
:100450008F77888749E050E089E491E00E94CE01DF
:1004600029960FB6F894DEBF0FBECDBFDF91CF91B6
:100470000895089580E090E00895FC01538D448D27
:10048000252F30E0842F90E0821B930B541710F03F
:10049000CF96089501970895FC01918D828D98174C
:1004A00061F0828DDF01A80FB11D5D968C91928D58
:1004B0009F5F9F73928F90E008958FEF9FEF089555
:1004C000FC01918D828D981731F0828DE80FF11D1E
:1004D000858D90E008958FEF9FEF0895FC01918D39
:1004E000228D892F90E0805C9F4F821B91098F7332
:1004F0009927089589E491E00E946E0221E0892BFA
:1005000009F420E0822F0895FC01848DDF01A80FFB
:10051000B11DA35ABF4F2C91848D90E001968F732B
:100520009927848FA689B7892C93A089B1898C914A
:10053000837080648C93938D848D981306C0028899
:10054000F389E02D80818F7D80830895EF92FF9263
:100550000F931F93CF93DF93EC0181E0888F9B8DE6
:100560008C8D981305C0E889F989808185FD26C0A6
:10057000F62E0B8D10E00F5F1F4F0F731127E02E2B
:100580008C8DE8120CC00FB607FCFACFE889F98908
:10059000808185FFF5CFCE010E948402F1CF8B8D43
:1005A000FE01E80FF11DE35AFF4FF0829FB7F89468
:1005B0000B8FEA89FB89808180620AC09FB7F8941B
:1005C000EE89FF896083E889F9898081837080647E
:1005D00080839FBF81E090E0DF91CF911F910F91C9
:1005E000FF90EF900895CF93DF93EC01888D8823DF
:1005F000C9F0EA89FB89808185FD05C0A889B98990
:100600008C9186FD0FC00FB607FCF5CF808185FF6A
:10061000F2CFA889B9898C9185FFEDCFCE010E94D8
:100620008402E7CFDF91CF91089580E090E0892B9D
:1006300029F00E947A0281110C9400000895109212
:100640000301109202011092010110920001109218
:10065000210110922001109223011092220160E0EA
:100660008091E6010E94870060E08091E7010E948E
:1006700087008091E801893049F49091ED019A302A
:1006800029F4109289001092880004C060E070E0A4
:100690000E94100160E08091EB010E94870060E001
:1006A0008091EC010E9487008091E801893049F433
:1006B0008091ED018A3029F410928B0010928A000B
:1006C000089560E070E08091ED010C9410010097B6
:1006D00069F0FC0101900020E9F73197AF01481B58
:1006E000590BBC0189E491E00C94CE0180E090E0CC
:1006F00008958F929F92AF92BF920F931F93CF93C3
:10070000DF93CDB7DEB7A1970FB6F894DEBF0FBE6B
:10071000CDBF19A2423008F44AE08E010F5D1F4F91
:10072000842E912CA12CB12CA50194010E94E206EB
:10073000E62FB901CA0101501109EA3014F4E05D55
:1007400001C0E95CD801EC93232B242B252B61F706
:10075000C8010E946703A1960FB6F894DEBF0FBED2
:10076000CDBFDF91CF911F910F91BF90AF909F9020
:100770008F9008950E940A071F920F920FB60F9252
:1007800011242F933F938F939F93AF93BF938091A7
:100790003A0190913B01A0913C01B0913D01309113
:1007A000390123E0230F2D3720F40196A11DB11D3F
:1007B00005C026E8230F0296A11DB11D2093390123
:1007C00080933A0190933B01A0933C01B0933D018B
:1007D00080913E0190913F01A0914001B091410173
:1007E0000196A11DB11D80933E0190933F01A093FE
:1007F0004001B0934101BF91AF919F918F913F9183
:100800002F910F900FBE0F901F9018951F920F926F
:100810000FB60F9211242F933F934F935F936F93D3
:100820007F938F939F93AF93BF93EF93FF9389E44D
:1008300091E00E948402FF91EF91BF91AF919F914F
:100840008F917F916F915F914F913F912F910F9079
:100850000FBE0F901F9018951F920F920FB60F9218
:1008600011242F938F939F93EF93FF93E09159015E
:10087000F0915A018081E0915F01F091600182FD69
:1008800012C09081809162018F5F8F73209163010C
:10089000821751F0E0916201F0E0E75BFE4F958F27
:1008A0008093620101C08081FF91EF919F918F91B0
:1008B0002F910F900FBE0F901F9018951F920F92BF
:1008C0000FB60F9211248F939F93EF93FF93E0E263
:1008D000F1E082819381019693838283FF91EF916E
:1008E0009F918F910F900FBE0F901F9018951F92A0
:1008F0000F920FB60F9211248F939F93EF93FF9354
:10090000E0E2F1E080819181019691838083FF9103
:10091000EF919F918F910F900FBE0F901F901895A0
:10092000E9E4F1E01382128288EE93E0A0E0B0E007
:1009300084839583A683B7838EE091E0918380833F
:1009400085EC90E09587848784EC90E09787868794
:1009500080EC90E0918B808B81EC90E0938B828B8C
:1009600082EC90E0958B848B86EC90E0978B868B65
:10097000118E128E138E148EE6EEF1E082E08083EB
:1009800084E0818389E0828386E083838EE08483B0
:1009900087E0858388E086838AE087838CE0808790
:1009A0008FE081870895789484B5826084BD84B592
:1009B000816084BD85B5826085BD85B5816085BD5A
:1009C00080916E00816080936E0010928100809112
:1009D000810082608093810080918100816080939A
:1009E0008100809180008160809380008091B100BF
:1009F00084608093B1008091B00081608093B000EA
:100A000080917A00846080937A0080917A0082607D
:100A100080937A0080917A00816080937A0080913F
:100A20007A00806880937A001092C100E0915901A9
:100A3000F0915A0182E08083E0915501F0915601D6
:100A40001082E0915701F09158018FEC8083109251
:100A50006101E0915D01F0915E0186E08083E091AB
:100A60005B01F0915C01808180618083E0915B019A
:100A7000F0915C01808188608083E0915B01F0915E
:100A80005C01808180688083E0915B01F0915C0172
:100A900080818F7D808361E08091E6010E94D40097
:100AA00061E08091E7010E94D40061E08091E8015B
:100AB0000E94D40060E08091E9010E94D40060E0CF
:100AC0008091EA010E94D40061E08091EB010E94D4
:100AD000D40061E08091EC010E94D40061E080913B
:100AE000ED010E94D40060E08091EE010E94D400EC
:100AF00060E08091EF010E94D4008091E80189308C
:100B000081F48091ED018A3061F480EA8093800065
:100B100081E18093810080E991E090938700809348
:100B2000860060E083E00E94D40060E085E00E94DF
:100B3000D40060E08DE00E94D40060E08BE00E9471
:100B4000D40080916D00886080936D00DA9A809166
:100B5000680084608093680080916D00806280935B
:100B60006D00DA9A809168008460809368008091BB
:100B70006B00806280936B00D89A809168008160DE
:100B80008093680080916B00886080936B00D89A96
:100B90008091680081608093680068EE73E080E077
:100BA00090E00E94940188E0E1E3F1E0DF011D9212
:100BB0008A95E9F787E0E2E4F1E0DF011D928A958A
:100BC000E9F768EE73E080E090E00E949401DD2494
:100BD000D39484E4C82E97E5B92E21E3E22E21E0D8
:100BE000F22E38E0A32E41E4942E00E911E04AE011
:100BF00066E070E080E090E00E9479038CE191E093
:100C00000E94670380910401803309F464C04AE0C4
:100C100062E070E080E090E00E9479038CE191E076
:100C20000E946703C0912401D0912501FE01EC5F71
:100C3000FE4F80818C36F1F01CF4863621F018C00E
:100C40008237B1F417C08091020190910301892B82
:100C500089F08091000190910101892B59F0109346
:100C6000030100930201109301010093000102C0EF
:100C70000E941F0360E070E0CB010E949401C73026
:100C8000D1050CF045C02196D0932501C0932401D5
:100C90003FC0C0912F01D0913001C930D105DCF5A2
:100CA00089E491E00E944C0290912E01992309F46D
:100CB00083C08E3709F446C0FE01EA5DFE4F808393
:100CC0002196D0933001C0932F0165E070E080E061
:100CD00090E00E94940189E491E00E946E0218164F
:100CE0001906BCF218C08D34F8F4863431F48093C0
:100CF0004201B09244010E94F801D701EA2D1D92F1
:100D0000EA95E9F764EF71E080E090E00E949401D9
:100D10000E9415036CCF809131018C3421F78093B0
:100D2000420190924401E7CF823529F48093420139
:100D3000C0924401E0CF833501F780934201809354
:100D40004401D9CF10922E011092300110922F0140
:100D50008091260180933101809127018093320197
:100D600080912801B0E88B9FC001112420912901B6
:100D7000822B909334018093330180912A01E0E823
:100D80008E9FC001112420912B01822B909336015C
:100D90008093350180912C01F0E88F9FC0011124D0
:100DA00020912D01822B909338018093370161E0CF
:100DB0008DE00E94870089CF813209F086CFD092E2
:100DC0002E0183CFA1E21A2EAA1BBB1BFD010DC071
:100DD000AA1FBB1FEE1FFF1FA217B307E407F507EB
:100DE00020F0A21BB30BE40BF50B661F771F881FC7
:100DF000991F1A9469F760957095809590959B015D
:100E0000AC01BD01CF010895EE0FFF1F0590F491D5
:100E1000E02D099481E090E0F8940C940F07F89489
:020E2000FFCF02
:100E22009001900166666666730000000000A602EB
:100E3200CE013D02F3026E024C0260020D0A000076
:00000001FF
