:100000000C945D000C9485000C9485000C9466059E
:100010000C9485000C947F050C9485000C9485004D
:100020000C9485000C9485000C9485000C9485003C
:100030000C9485000C9485000C9485000C9485002C
:100040000C94C4040C9485000C9434050C940E0597
:100050000C9485000C9485000C9485000C9485000C
:100060000C9485000C9485000000000024002700FB
:100070002A0000000000250028002B0004040404CE
:100080000404040402020202020203030303030342
:10009000010204081020408001020408102001021F
:1000A00004081020000000080002010000030407FB
:1000B0000000000000000000980511241FBECFEFD3
:1000C000D8E0DEBFCDBF11E0A0E0B1E0EEEDF2E19F
:1000D00002C005900D92A231B107D9F721E0A2E14B
:1000E000B1E001C01D92AC3EB207E1F710E0CDE5F2
:1000F000D0E004C02197FE010E946209CC35D107EF
:10010000C9F70E94DB050C946D090C94000090E087
:10011000FC01EC55FF4F2491FC01E057FF4F349157
:10012000FC01E458FF4FE491EE2309F43CC0222384
:1001300039F1233091F038F42130A9F0223001F563
:1001400084B58F7D12C0273091F02830A1F0243083
:10015000B9F4809180008F7D03C0809180008F77FB
:10016000809380000DC084B58F7784BD09C08091D5
:10017000B0008F7703C08091B0008F7D8093B00076
:10018000F0E0EE0FFF1FEE58FF4FA591B4919FB71F
:10019000F894611104C08C913095382302C0EC9121
:1001A0003E2B3C939FBF0895CF93DF9390E0FC01DB
:1001B000E057FF4F2491FC01E458FF4F84918823BE
:1001C00061F190E0880F991FFC01E859FF4FC5913C
:1001D000D491FC01EE58FF4FA591B491611109C073
:1001E0009FB7F8948881209582238883EC912E23F1
:1001F0000BC0623061F49FB7F8948881322F30953C
:1002000083238883EC912E2B2C939FBF06C08FB73E
:10021000F894E8812E2B28838FBFDF91CF9108952A
:100220001F93CF93DF93182FEB0161E00E94D4005E
:10023000209711F460E004C0CF3FD10539F461E0AC
:10024000812FDF91CF911F910C948700E12FF0E077
:10025000EC55FF4FE491E330F9F048F4E130B9F0A8
:10026000E230A1F584B5806284BDC8BD34C0E730FA
:10027000E9F0E83019F1E43049F5809180008062BE
:1002800080938000D0938B00C0938A0024C084B5F3
:10029000806884BDC7BD1FC0809180008068809346
:1002A0008000D0938900C093880015C08091B00071
:1002B00080688093B000C093B3000DC08091B000FF
:1002C00080628093B000C093B40005C0C038D105EF
:1002D0000CF0B5CFAFCFDF91CF911F910895FF9272
:1002E0000F931F93CF93DF93EB0197FF06C0919578
:1002F00081959109FF24F39401C0F12C8C010139FF
:1003000081E0180714F000E911E02091E4012930A0
:1003100049F48091E9018A3029F41093890000930F
:1003200088000DC033E3309FC001319F900D112430
:1003300060E570E00E943A09822F0E941001012BB3
:1003400011F460E00AC0FF2039F060E08091E20122
:100350000E94870061E006C061E08091E2010E9496
:10036000870060E08091E3010E948700D7FF05C00D
:10037000D195C195D10911E001C010E0C13981E0EA
:10038000D80714F0C0E9D1E08091E401893049F444
:100390008091E9018A3029F4D0938B00C0938A00C0
:1003A0000EC023E32C9FC0012D9F900D112460E50A
:1003B00070E00E943A098091E9010E941001CD2B62
:1003C00011F460E00AC0112339F060E08091E70188
:1003D0000E94870061E006C061E08091E7010E9411
:1003E000870060E08091E801DF91CF911F910F912C
:1003F000FF900C948700CF93DF9397FF03C09195F4
:1004000081959109EC01C13981E0D80714F0C0E968
:10041000D1E060E08091E7010E94870060E0809178
:10042000E8010E9487008091E401893059F48091AD
:10043000E9018A3039F4D0938B00C0938A00DF91B0
:10044000CF91089523E32C9FC0012D9F900D11247F
:1004500060E570E00E943A098091E901DF91CF9157
:100460000C941001CF93DF9397FF03C09195819572
:100470009109EC01C13981E0D80714F0C0E9D1E05D
:1004800060E08091E2010E94870060E08091E301DA
:100490000E9487002091E401293059F48091E901FC
:1004A0008A3039F4D0938900C0938800DF91CF91CE
:1004B000089533E33C9FC0013D9F900D112460E5FA
:1004C00070E00E943A09822FDF91CF910C941001C5
:1004D0003FB7F89480913A0190913B01A0913C0183
:1004E000B0913D0126B5A89B05C02F3F19F001969C
:1004F000A11DB11D3FBFBA2FA92F982F8827820FAA
:10050000911DA11DB11DBC01CD0142E0660F771FF9
:10051000881F991F4A95D1F708958F929F92AF92A5
:10052000BF92CF92DF92EF92FF926B017C010E940B
:1005300068024B015C01C114D104E104F104F1F043
:100540000E946802DC01CB0188199909AA09BB093C
:10055000883E9340A105B10570F321E0C21AD1088D
:10056000E108F10888EE880E83E0981EA11CB11CFA
:10057000C114D104E104F10419F7DDCFFF90EF902D
:10058000DF90CF90BF90AF909F908F9008952FB73E
:10059000F894609136017091370180913801909103
:1005A00039012FBF0895CF92DF92EF92FF920F9300
:1005B0001F93CF93DF936C017A018B01C0E0D0E0F1
:1005C000CE15DF0581F0D8016D918D01D601ED9139
:1005D000FC910190F081E02DC6010995892B11F065
:1005E0002196EECF7E01C701DF91CF911F910F9130
:1005F000FF90EF90DF90CF900895CF93DF93CDB72A
:10060000DEB729970FB6F894DEBF0FBECDBFBE018F
:100610006F5F7F4F89E0FB0111928A95E9F781E2D4
:1006200089838EE78987EEE3F1E080818A83818187
:100630008B8382818C83838194819C01220F232F61
:10064000221F330B2D838F778E83858196819C01AA
:10065000220F232F221F330B2F838F77888749E0A8
:1006600050E085E491E00E94D30229960FB6F894F9
:10067000DEBF0FBECDBFDF91CF910895089580E01A
:1006800090E00895FC01538D448D252F30E0842F98
:1006900090E0821B930B541710F0CF9608950197AA
:1006A0000895FC01918D828D981761F0828DDF0194
:1006B000A80FB11D5D968C91928D9F5F9F73928F55
:1006C00090E008958FEF9FEF0895FC01918D828D4A
:1006D000981731F0828DE80FF11D858D90E0089517
:1006E0008FEF9FEF0895FC01918D228D892F90E06F
:1006F000805C9F4F821B91098F739927089585E431
:1007000091E00E94730321E0892B09F420E0822FFD
:100710000895FC01848DDF01A80FB11DA35ABF4FBE
:100720002C91848D90E001968F739927848FA689F0
:10073000B7892C93A089B1898C91837080648C9344
:10074000938D848D981306C00288F389E02D8081F3
:100750008F7D80830895EF92FF920F931F93CF9325
:10076000DF93EC0181E0888F9B8D8C8D981305C001
:10077000E889F989808185FD26C0F62E0B8D10E071
:100780000F5F1F4F0F731127E02E8C8DE8120CC0E6
:100790000FB607FCFACFE889F989808185FFF5CF8C
:1007A000CE010E948903F1CF8B8DFE01E80FF11D70
:1007B000E35AFF4FF0829FB7F8940B8FEA89FB89C9
:1007C000808180620AC09FB7F894EE89FF896083B8
:1007D000E889F98980818370806480839FBF81E08C
:1007E00090E0DF91CF911F910F91FF90EF900895CE
:1007F000CF93DF93EC01888D8823C9F0EA89FB89C8
:10080000808185FD05C0A889B9898C9186FD0FC0BE
:100810000FB607FCF5CF808185FFF2CFA889B98993
:100820008C9185FFEDCFCE010E948903E7CFDF9148
:10083000CF91089580E090E0892B29F00E947F03FA
:1008400081110C9400000895E5E2F1E0118210821C
:10085000138212820895EF92FF920F931F93CF930A
:10086000DF93EC01FB0160912701709128018091D9
:10087000250190912601A0911F01B09120016A1BD2
:100880007B0BA0911D01B0911E018A1B9B0B681B65
:10089000790B8091230190912401DB01A81BB90BF6
:1008A000709324016093230180912501909126018A
:1008B00090931E0180931D01809127019091280142
:1008C0009093200180931F01649FC001659F900D4C
:1008D000749F900D11246091210170912201269F37
:1008E000A001279F500D369F500D1124841B950B9E
:1008F000A09F9001A19F300DB09F300D1124820F59
:10090000931F64E670E00E943A098881998121E092
:10091000E216F10421F02FEFE216F20681F46E9D4B
:1009200090016F9D300D7E9D300D1124821B930B25
:100930009983888380819181821B930B1AC0860FD3
:10094000971F9983888380819181861B970B918360
:100950008083888199818139914024F080E991E0F8
:1009600099838883808191818139914024F080E945
:1009700091E091838083DF91CF911F910F91FF9040
:10098000EF9008950E9468091F920F920FB60F9280
:1009900011242F933F938F939F93AF93BF93809195
:1009A000360190913701A0913801B0913901309111
:1009B000350123E0230F2D3720F40196A11DB11D31
:1009C00005C026E8230F0296A11DB11D2093350115
:1009D0008093360190933701A0933801B093390189
:1009E00080913A0190913B01A0913C01B0913D0171
:1009F0000196A11DB11D80933A0190933B01A093F4
:100A00003C01B0933D01BF91AF919F918F913F9178
:100A10002F910F900FBE0F901F9018951F920F925D
:100A20000FB60F9211242F933F934F935F936F93C1
:100A30007F938F939F93AF93BF93EF93FF9385E43F
:100A400091E00E948903FF91EF91BF91AF919F9137
:100A50008F917F916F915F914F913F912F910F9067
:100A60000FBE0F901F9018951F920F920FB60F9206
:100A700011242F938F939F93EF93FF93E091550150
:100A8000F09156018081E0915B01F0915C0182FD63
:100A900012C0908180915E018F5F8F7320915F0102
:100AA000821751F0E0915E01F0E0EB5BFE4F958F15
:100AB00080935E0101C08081FF91EF919F918F91A2
:100AC0002F910F900FBE0F901F9018951F920F92AD
:100AD0000FB60F9211248F939F93EF93FF93E5E24C
:100AE000F1E082819381019693838283FF91EF915C
:100AF0009F918F910F900FBE0F901F9018951F928E
:100B00000F920FB60F9211248F939F93EF93FF9341
:100B1000E5E2F1E080819181019691838083FF91EC
:100B2000EF919F918F910F900FBE0F901F9018958E
:100B3000E5E4F1E01382128288EE93E0A0E0B0E0F9
:100B400084839583A683B78384E091E09183808337
:100B500085EC90E09587848784EC90E09787868782
:100B600080EC90E0918B808B81EC90E0938B828B7A
:100B700082EC90E0958B848B86EC90E0978B868B53
:100B8000118E128E138E148EE2EEF1E082E08083DD
:100B900084E0818389E0828386E083838EE084839E
:100BA00087E0858388E086838AE087838CE080877E
:100BB0008FE081870895CF93DF9300D000D0CDB729
:100BC000DEB7789484B5826084BD84B5816084BDCD
:100BD00085B5826085BD85B5816085BD80916E00DB
:100BE000816080936E00109281008091810082600C
:100BF0008093810080918100816080938100809149
:100C000080008160809380008091B1008460809337
:100C1000B1008091B00081608093B00080917A0033
:100C2000846080937A0080917A00826080937A0059
:100C300080917A00816080937A0080917A00806848
:100C400080937A001092C100E0915501F091560115
:100C500082E08083E0915101F09152011082E09195
:100C60005301F09154018FEC808310925D01E0916B
:100C70005901F0915A0186E08083E0915701F0918B
:100C80005801808180618083E0915701F091580183
:100C9000808188608083E0915701F09158018081C4
:100CA00080688083E0915701F091580180818F7DA9
:100CB000808361E08091E2010E94D40061E0809134
:100CC000E3010E94D40061E08091E4010E94D4001D
:100CD00060E08091E5010E94D40060E08091E6012F
:100CE0000E94D40061E08091E7010E94D40061E09D
:100CF0008091E8010E94D40061E08091E9010E94A6
:100D0000D40060E08091EA010E94D40060E080910C
:100D1000EB010E94D4008091E401893081F480913C
:100D2000E9018A3061F480EA8093800081E1809358
:100D3000810080E991E0909387008093860060E0D5
:100D400083E00E94D40060E085E00E94D40060E06F
:100D50008DE00E94D40060E08BE00E94D40080917E
:100D60006D00886080936D00DA9A809168008460DD
:100D70008093680080916D00806280936D00DA9AA4
:100D80008091680084608093680080916B0080622D
:100D900080936B00D89A809168008160809368008E
:100DA00080916B00886080936B00D89A8091680076
:100DB00081608093680088E0EDE2F1E0DF011D9240
:100DC0008A95E9F787E0EEE3F1E0DF011D928A956D
:100DD000E9F764EF71E080E090E00E948D02222448
:100DE000239422E5322E30E7C32E3EEFD32E40E986
:100DF000A42EBB24B3945EE5852E9924939485E4B8
:100E000091E00E9473031816190644F400911B0127
:100E100010911C01093011050CF451C110912D01E4
:100E20001C3409F065C080912B0190912C01892B15
:100E3000E1F58091290190912A01892BB1F5BC82BD
:100E4000AB82DA82C9820E94C7022B013C01109258
:100E5000240110922301109222011092210110927C
:100E60001E0110921D011092200110921F010E947C
:100E7000240469817A818B819C810E946F0162E3E5
:100E800070E080E090E00E948D02809125019091B9
:100E9000260180329540FCF4809127019091280131
:100EA000803295400CF494C116C080E090E00E941E
:100EB000FB010E9424048091270190912801843530
:100EC0009D408CF460E070E08091290190912A01AE
:100ED0000E946F01F0CF80E991E00E94320280E928
:100EE00091E00E94FB018CE480933E0181E46DC19E
:100EF0001D3408F04AC0163409F094C080912B01CB
:100F000090912C01892B71F48091290190912A01F3
:100F1000892B41F490922C0180922B0190922A010E
:100F2000809229010E9468020E94240410922401E8
:100F300010922301109222011092210110921E01A1
:100F400010921D011092200110921F0160912B013F
:100F500070912C018091290190912A010E946F01CA
:100F60000E94C7022B013C0180912501909126012E
:100F7000883A94400CF025C1809127019091280176
:100F8000883A94400CF4F2C01CC1123509F078C0C4
:100F900080912B0190912C01892B09F05BC08091ED
:100FA000290190912A01892B09F054C0DC82CB825F
:100FB000BA82A9820E94C7022B013C01109224012F
:100FC00010922301109222011092210110921E0111
:100FD00010921D011092200110921F010E94240402
:100FE00069817A818B819C810E946F0162E370E04C
:100FF00080E090E00E948D02809125019091260171
:1010000080329540F4F080E991E00E94320280E95C
:1010100091E00E94FB0130923E01E4E4E093400144
:101020000E94FD0288E0ADE2B1E01D928A95E9F7E9
:1010300062E370E080E090E00E948D020E941A045A
:10104000DECE8091270190912801803295400CF4EA
:10105000E8C0D9CF80E090E00E9432020E942404D0
:10106000809127019091280184359D40A4F66091DC
:101070002B0170912C0180E090E00E946F01F0CF75
:10108000133581F610922C0110922B0110922A0137
:10109000109229010E94240480E090E00E94320214
:1010A00080E090E00E94FB0160ED77E080E090E05E
:1010B0000E948D0210933E0110934001B1CF85E450
:1010C00091E00E94510390911A01992309F443C0C1
:1010D0008E3759F0F801EE5EFE4F80830F5F1F4F91
:1010E00010931C0100931B013AC010921A01109238
:1010F0001C0110921B018091120180932D0180919F
:10110000130180932E0180911401B0E88B9FC001E0
:10111000112420911501822B9093300180932F018F
:1011200080911601E0E88E9FC001112420911701E3
:10113000822B909332018093310180911801F0E865
:101140008F9FC001112420911901822B90933401AB
:101150008093330104C0813211F420921A0165E0BA
:1011600070E080E090E00E948D0249CE0E94C702AC
:10117000DC01CB0184199509A609B70985369105CB
:10118000A105B10508F4F0CEE12CF12C08E210E045
:1011900020E030E048E250E06BE271E089E291E06B
:1011A0000E942B040E94C7022B013C0160912B017D
:1011B00070912C018091290190912A010E946F0168
:1011C000D3CEB6E4B0933E0187E58093400128CFAB
:1011D0000E94C702DC01CB0184199509A609B70951
:1011E00085369105A105B10508F44FCEEE24EA94A9
:1011F000FE2C0FE010E026E030E046E950E0BE01B2
:101200006F5F7F4FCE0103960E942B040E94C7029E
:101210002B013C0169817A818B819C810E946F0145
:1012200034CE0E94C702DC01CB0184199509A609BE
:10123000B70985369105A105B10508F4DDCEEE2488
:10124000E394F12C0FE010E026E030E046E950E0B6
:10125000BE016F5F7F4FCE0103960E942B040E9458
:10126000C7022B013C0169817A818B819C810E949C
:101270006F01C2CE97FB072E16F4009407D077FDBE
:1012800009D00E944E0907FC05D03EF49095819547
:101290009F4F0895709561957F4F0895AA1BBB1BC2
:1012A00051E107C0AA1FBB1FA617B70710F0A61B66
:1012B000B70B881F991F5A95A9F780959095BC0187
:1012C000CD010895EE0FFF1F0590F491E02D0994D4
:0E12D00081E090E0F8940C946D09F894FFCF43
:1012DE0000000000AB03D3024203F8037303510373
:0212EE00650396
:107E0000112484B714BE81FFF0D085E080938100F7
:107E100082E08093C00088E18093C10086E0809377
:107E2000C20080E18093C4008EE0C9D0259A86E02C
:107E300020E33CEF91E0309385002093840096BBD3
:107E4000B09BFECF1D9AA8958150A9F7CC24DD24C4
:107E500088248394B5E0AB2EA1E19A2EF3E0BF2EE7
:107E6000A2D0813461F49FD0082FAFD0023811F036
:107E7000013811F484E001C083E08DD089C08234E0
:107E800011F484E103C0853419F485E0A6D080C0E4
:107E9000853579F488D0E82EFF2485D0082F10E0AE
:107EA000102F00270E291F29000F111F8ED06801E7
:107EB0006FC0863521F484E090D080E0DECF843638
:107EC00009F040C070D06FD0082F6DD080E0C81688
:107ED00080E7D80618F4F601B7BEE895C0E0D1E017
:107EE00062D089930C17E1F7F0E0CF16F0E7DF06D8
:107EF00018F0F601B7BEE89568D007B600FCFDCFD4
:107F0000A601A0E0B1E02C9130E011968C91119780
:107F100090E0982F8827822B932B1296FA010C0160
:107F200087BEE89511244E5F5F4FF1E0A038BF0790
:107F300051F7F601A7BEE89507B600FCFDCF97BE46
:107F4000E89526C08437B1F42ED02DD0F82E2BD052
:107F50003CD0F601EF2C8F010F5F1F4F84911BD097
:107F6000EA94F801C1F70894C11CD11CFA94CF0C13
:107F7000D11C0EC0853739F428D08EE10CD085E9AC
:107F80000AD08FE07ACF813511F488E018D01DD067
:107F900080E101D065CF982F8091C00085FFFCCF94
:107FA0009093C60008958091C00087FFFCCF809118
:107FB000C00084FD01C0A8958091C6000895E0E648
:107FC000F0E098E1908380830895EDDF803219F02E
:107FD00088E0F5DFFFCF84E1DECF1F93182FE3DFCA
:107FE0001150E9F7F2DF1F91089580E0E8DFEE27F6
:047FF000FF270994CA
:027FFE00040479
:0400000300007E007B
:00000001FF
