:100000000C945D000C9485000C9485000C94D10731
:100010000C9485000C94EA070C9485000C948500E0
:100020000C9485000C9485000C9485000C9485003C
:100030000C9485000C9485000C9485000C9485002C
:100040000C942F070C9485000C949F070C9479074F
:100050000C9485000C9485000C9485000C9485000C
:100060000C9485000C9485000000000024002700FB
:100070002A0000000000250028002B0004040404CE
:100080000404040402020202020203030303030342
:10009000010204081020408001020408102001021F
:1000A00004081020000000080002010000030407FB
:1000B0000000000000000000030811241FBECFEF65
:1000C000D8E0DEBFCDBF11E0A0E0B1E0E6EBFAE1A1
:1000D00002C005900D92A431B107D9F721E0A4E147
:1000E000B1E001C01D92AE3FB207E1F710E0CDE5EF
:1000F000D0E004C02197FE010E944E0DCC35D107FF
:10010000C9F70E946B080C94590D0C940000EF92F3
:10011000FF920F931F93CF93DF93CDB7DEB7C656F1
:10012000D1090FB6F894DEBF0FBECDBFAE0149595D
:100130005F4FFE0131968091E6018E3008F08E50BF
:100140002091010190E4299F900111248770822B56
:1001500080937C0080917A00806480937A00809103
:100160007A0086FDFCCF809178002091790090E0A4
:10017000922B819391934E175F07E9F682E390E00B
:10018000FE01319620E030E041E0281739079CF469
:10019000E190F190008111810E151F054CF4AF0123
:1001A00042505109DA010D931C93F182E08240E044
:1001B0002F5F3F4FEACF411102C0019709F78091AD
:1001C000E8019091E901A091EA01B091EB01883337
:1001D00024E09207A105B10589F56BA97CA9072E3A
:1001E000000C880B990B0E942D0C20E030E040EAB7
:1001F00050E40E94B90C9B01AC0160E070EC8FE709
:1002000094E40E94830B2091F0013091F101409120
:10021000F2015091F3010E94160B2091EC013091F4
:10022000ED014091EE015091EF010E94830B20E01F
:1002300030E040E251E40E94B90C2FC0863B9E445E
:10024000A105B10561F56BA97CA9072E000C880BEF
:10025000990B0E942D0C20E030E040EA50E40E940F
:10026000B90C9B01AC0160E070EC8FE794E40E9454
:10027000830B2091F0013091F1014091F2015091F6
:10028000F3010E94160B2091EC013091ED01409199
:10029000EE015091EF010E94830B0E94F50BCB0100
:1002A000CA59DF4F0FB6F894DEBF0FBECDBFDF9146
:1002B000CF911F910F91FF90EF90089590E0FC0176
:1002C000EC55FF4F2491FC01E057FF4F3491FC01A6
:1002D000E458FF4FE491EE2309F43CC0222339F1A6
:1002E000233091F038F42130A9F0223001F584B5A3
:1002F0008F7D12C0273091F02830A1F02430B9F45E
:10030000809180008F7D03C0809180008F778093E3
:1003100080000DC084B58F7784BD09C08091B00086
:100320008F7703C08091B0008F7D8093B000F0E0A4
:10033000EE0FFF1FEE58FF4FA591B4919FB7F894B1
:10034000611104C08C913095382302C0EC913E2B92
:100350003C939FBF0895CF93DF9390E0FC01E0575B
:10036000FF4F2491FC01E458FF4F8491882361F1F1
:1003700090E0880F991FFC01E859FF4FC591D49177
:10038000FC01EE58FF4FA591B491611109C09FB7D0
:10039000F8948881209582238883EC912E230BC0CA
:1003A000623061F49FB7F8948881322F30958323AF
:1003B0008883EC912E2B2C939FBF06C08FB7F894A7
:1003C000E8812E2B28838FBFDF91CF9108951F9353
:1003D000CF93DF93182FEB0161E00E94AB012097D0
:1003E00011F460E004C0CF3FD10539F461E0812F02
:1003F000DF91CF911F910C945E01E12FF0E0EC555D
:10040000FF4FE491E330F9F048F4E130B9F0E23025
:10041000A1F584B5806284BDC8BD34C0E730E9F081
:10042000E83019F1E43049F58091800080628093D2
:100430008000D0938B00C0938A0024C084B580686C
:1004400084BDC7BD1FC080918000806880938000FC
:10045000D0938900C093880015C08091B000806857
:100460008093B000C093B3000DC08091B000806253
:100470008093B000C093B40005C0C038D1050CF023
:10048000B5CFAFCFDF91CF911F9108951F93CF9339
:10049000DF9397FF05C091958195910911E001C007
:1004A00010E0EC01C13981E0D80714F0C0E9D1E0D7
:1004B0008091F601893049F48091FB018A3029F45A
:1004C000D0938B00C0938A000EC023E32C9FC00101
:1004D0002D9F900D112460E570E00E94260D809103
:1004E000FB010E94E701CD2B11F460E00AC011234B
:1004F00039F060E08091F9010E945E0161E006C080
:1005000061E08091F9010E945E0160E08091FA0152
:10051000DF91CF911F910C945E011F93CF93DF93D6
:1005200097FF05C091958195910911E001C010E0F8
:10053000EC01C13981E0D80714F0C0E9D1E0209185
:10054000F601293049F48091FB018A3029F4D093D7
:100550008900C09388000DC033E33C9FC0013D9FDC
:10056000900D112460E570E00E94260D822F0E94FC
:10057000E701CD2B11F460E00AC0112339F060E0EF
:100580008091F4010E945E0161E006C061E080910B
:10059000F4010E945E0160E08091F501DF91CF914E
:1005A0001F910C945E01CF93DF93EB010E948D02AB
:1005B000CE01DF91CF910C94460260E08091F90169
:1005C0000E945E0160E08091FA010E945E018091CC
:1005D000F601893059F48091FB018A3039F480E9C1
:1005E00091E090938B0080938A0008956FEF70E004
:1005F0008091FB010C94E70160E08091F4010E947E
:100600005E0160E08091F5010E945E018091F6013B
:10061000893059F49091FB019A3039F480E991E0E6
:10062000909389008093880008956FEF70E00C9498
:10063000E7013FB7F89480913E0190913F01A0916E
:100640004001B091410126B5A89B05C02F3F19F08C
:100650000196A11DB11D3FBFBA2FA92F982F882742
:10066000820F911DA11DB11DBC01CD0142E0660F9D
:10067000771F881F991F4A95D1F708958F929F92EF
:10068000AF92BF92CF92DF92EF92FF926B017C010B
:100690000E9419034B015C01C114D104E104F1046F
:1006A000F1F00E941903DC01CB0188199909AA090C
:1006B000BB09883E9340A105B10570F321E0C21A41
:1006C000D108E108F10888EE880E83E0981EA11C8D
:1006D000B11CC114D104E104F10419F7DDCFFF907E
:1006E000EF90DF90CF90BF90AF909F908F90089544
:1006F0002FB7F89460913A0170913B0180913C01D1
:1007000090913D012FBF0895CF92DF92EF92FF921B
:100710000F931F93CF93DF936C017A018B01C0E09D
:10072000D0E0CE15DF0581F0D8016D918D01D601A5
:10073000ED91FC910190F081E02DC6010995892B86
:1007400011F02196EECF7E01C701DF91CF911F916D
:100750000F91FF90EF90DF90CF900895CF93DF93AC
:10076000CDB7DEB729970FB6F894DEBF0FBECDBF69
:10077000BE016F5F7F4F89E0FB0111928A95E9F717
:1007800081E289838EE78987E2E4F1E080818A83D0
:1007900081818B8382818C83838194819C01220F50
:1007A000232F221F330B2D838F778E838581968194
:1007B0009C01220F232F221F330B2F838F778887D3
:1007C00049E050E089E491E00E94840329960FB645
:1007D000F894DEBF0FBECDBFDF91CF91089508958D
:1007E00080E090E00895FC01538D448D252F30E08A
:1007F000842F90E0821B930B541710F0CF9608952E
:1008000001970895FC01918D828D981761F0828D7A
:10081000DF01A80FB11D5D968C91928D9F5F9F7334
:10082000928F90E008958FEF9FEF0895FC01918DD6
:10083000828D981731F0828DE80FF11D858D90E043
:1008400008958FEF9FEF0895FC01918D228D892FE0
:1008500090E0805C9F4F821B91098F7399270895C8
:1008600089E491E00E94240421E0892B09F420E02E
:10087000822F0895FC01848DDF01A80FB11DA35ABA
:10088000BF4F2C91848D90E001968F739927848FB0
:10089000A689B7892C93A089B1898C9183708064D3
:1008A0008C93938D848D981306C00288F389E02D74
:1008B00080818F7D80830895EF92FF920F931F9325
:1008C000CF93DF93EC0181E0888F9B8D8C8D981303
:1008D00005C0E889F989808185FD26C0F62E0B8D3B
:1008E00010E00F5F1F4F0F731127E02E8C8DE81261
:1008F0000CC00FB607FCFACFE889F989808185FF23
:10090000F5CFCE010E943A04F1CF8B8DFE01E80FA6
:10091000F11DE35AFF4FF0829FB7F8940B8FEA89DD
:10092000FB89808180620AC09FB7F894EE89FF89B5
:100930006083E889F98980818370806480839FBFA8
:1009400081E090E0DF91CF911F910F91FF90EF90A8
:100950000895CF93DF93EC01888D8823C9F0EA894D
:10096000FB89808185FD05C0A889B9898C9186FDA8
:100970000FC00FB607FCF5CF808185FFF2CFA889A5
:10098000B9898C9185FFEDCFCE010E943A04E7CF63
:10099000DF91CF91089580E090E0892B29F00E94AB
:1009A000300481110C9400000895ECE1F1E0118213
:1009B0001082138212820895EF92FF920F931F9379
:1009C000CF93DF93EC01FB0160911E0170911F0139
:1009D00080911C0190911D01A0911A01B0911B0101
:1009E0006A1B7B0BA0911801B09119018A1B9B0B0C
:1009F000681B790B8091160190911701DB01A81BF0
:100A0000B90B709317016093160180911C019091AE
:100A10001D01909319018093180180911E019091FE
:100A20001F0190931B0180931A01649FC001659F71
:100A3000900D749F900D1124609114017091150117
:100A4000269FA001279F500D369F500D1124841B17
:100A5000950BA09F9001A19F300DB09F300D1124E8
:100A6000820F931F64E670E00E94260D88819981B1
:100A700021E0E216F10421F02FEFE216F20681F4F4
:100A80006E9D90016F9D300D7E9D300D1124821B57
:100A9000930B9983888380819181821B930B1AC069
:100AA000860F971F9983888380819181861B970B7E
:100AB00091838083888199818139914024F080E9F4
:100AC00091E099838883808191818139914024F0DC
:100AD00080E991E091838083DF91CF911F910F9105
:100AE000FF90EF9008950E94DD020E94D50480914E
:100AF0001C0190911D018E329B403CF4809122019B
:100B0000909123010E948D02F2CF08950E94FC0271
:100B10000E94D50480911E0190911F018E329B404E
:100B20003CF480912401909125010E944602F2CF6D
:100B30000895109225011092240110922301109221
:100B400022010E94D5040E94FC020E94DD026EE197
:100B500070E080E090E00C943E038F929F92AF9201
:100B6000BF92CF92DF92EF92FF920F931F93CF939A
:100B7000DF9300D000D0CDB7DEB76C018EEE90E0F1
:100B80009A8389838AE19FEF9C838B830E947803F9
:100B90004B015C0110921701109216011092150181
:100BA00010921401109219011092180110921B0159
:100BB00010921A010E94D5046B817C8189819A81EF
:100BC0000E94D30262E370E080E090E00E943E0366
:100BD00080911C0190911D018C159D057CF58091E3
:100BE0001E0190911F018C159D0544F50E9478030C
:100BF000DC01CB0188199909AA09BB098536910541
:100C0000A105B10528F3EE24EA94FE2C0FE010E0D4
:100C100026E030E046E950E0BE016D5F7F4FCE0137
:100C200001960E94DC040E9478034B015C016B81F9
:100C30007C8189819A810E94D302CACF0E94FC02E2
:100C40000E94DD020F900F900F900F90DF91CF91D7
:100C50001F910F91FF90EF90DF90CF90BF90AF90DA
:100C60009F908F9008958F929F92AF92BF92CF9254
:100C7000DF92EF92FF920F931F93CF93DF9300D0F9
:100C800000D0CDB7DEB76C0182E19FEF9A838983F4
:100C900086EE90E09C838B830E9478034B015C017D
:100CA0001092170110921601109215011092140162
:100CB000109219011092180110921B0110921A0142
:100CC0000E94D5046B817C8189819A810E94D30224
:100CD00062E370E080E090E00E943E0380911C019E
:100CE00090911D018C159D057CF580911E019091C0
:100CF0001F018C159D0544F50E947803DC01CB0192
:100D000088199909AA09BB0985369105A105B1057C
:100D100028F3EE24E394F12C0FE010E026E030E01D
:100D200046E950E0BE016D5F7F4FCE0101960E9403
:100D3000DC040E9478034B015C016B817C8189811A
:100D40009A810E94D302CACF0E94FC020E94DD0257
:100D50000F900F900F900F90DF91CF911F910F91F7
:100D6000FF90EF90DF90CF90BF90AF909F908F90CB
:100D70000895CF92DF92EF92FF920F931F930E94FC
:100D800019030E94D50410921701109216011092B7
:100D9000150110921401109219011092180110926D
:100DA0001B0110921A018091240190912501892B39
:100DB00091F48091220190912301892B61F486EEB8
:100DC00090E090932501809324018EEE90E0909323
:100DD000230180932201609124017091250180916B
:100DE0002201909123010E94D3020E9478036B019B
:100DF0007C010E947803DC01CB018C199D09AE09AE
:100E0000BF0981359105A105B10500F1E12CF12C57
:100E100004EB10E028EC30E04EE551E064E271E0D4
:100E200082E291E00E94DC040E9478036091240138
:100E30007091250180912201909123011F910F91C2
:100E4000FF90EF90DF90CF900C94D3021F910F9101
:100E5000FF90EF90DF90CF9008950E94540D1F9265
:100E60000F920FB60F9211242F933F938F939F935E
:100E7000AF93BF9380913A0190913B01A0913C01C7
:100E8000B0913D013091390123E0230F2D3720F43B
:100E90000196A11DB11D05C026E8230F0296A11DD4
:100EA000B11D2093390180933A0190933B01A093A7
:100EB0003C01B0933D0180913E0190913F01A09192
:100EC0004001B09141010196A11DB11D80933E01E9
:100ED00090933F01A0934001B0934101BF91AF9126
:100EE0009F918F913F912F910F900FBE0F901F9068
:100EF00018951F920F920FB60F9211242F933F93C4
:100F00004F935F936F937F938F939F93AF93BF9311
:100F1000EF93FF9389E491E00E943A04FF91EF91EF
:100F2000BF91AF919F918F917F916F915F914F9101
:100F30003F912F910F900FBE0F901F9018951F9209
:100F40000F920FB60F9211242F938F939F93EF93CD
:100F5000FF93E0915901F0915A018081E0915F0186
:100F6000F091600182FD12C09081809162018F5FDB
:100F70008F7320916301821751F0E0916201F0E0DC
:100F8000E75BFE4F958F8093620101C08081FF91E6
:100F9000EF919F918F912F910F900FBE0F901F9007
:100FA00018951F920F920FB60F9211248F939F9353
:100FB000EF93FF93ECE1F1E08281938101969383BB
:100FC0008283FF91EF919F918F910F900FBE0F90B1
:100FD0001F9018951F920F920FB60F9211248F93A6
:100FE0009F93EF93FF93ECE1F1E080819181019673
:100FF00091838083FF91EF919F918F910F900FBE0E
:101000000F901F901895E9E4F1E01382128288EEA8
:1010100093E0A0E0B0E084839583A683B78386E065
:1010200091E09183808385EC90E09587848784ECC0
:1010300090E09787868780EC90E0918B808B81ECA5
:1010400090E0938B828B82EC90E0958B848B86EC86
:1010500090E0978B868B118E128E138E148EE4EF98
:10106000F1E082E0808384E0818389E0828386E00E
:1010700083838EE0848387E0858388E086838AE0AB
:1010800087838CE080878FE08187E6EEF1E08EE059
:1010900090E09183808388E394E0A0E0B0E08283D5
:1010A0009383A483B58386E091E8A5E1BDE38683BD
:1010B0009783A087B1878FE892ECA5E7BDE382878D
:1010C0009387A487B58760E08EE00E94AB0181E042
:1010D000809301010895789484B5826084BD84B5BD
:1010E000816084BD85B5826085BD85B5816085BD23
:1010F00080916E00816080936E00109281008091DB
:101100008100826080938100809181008160809362
:101110008100809180008160809380008091B10087
:1011200084608093B1008091B00081608093B000B2
:1011300080917A00846080937A0080917A00826046
:1011400080937A0080917A00816080937A00809108
:101150007A00806880937A001092C100E091590172
:10116000F0915A0182E08083E0915501F09156019F
:101170001082E0915701F091580187E68083109228
:101180006101E0915D01F0915E0186E08083E09174
:101190005B01F0915C01808180618083E0915B0163
:1011A000F0915C01808188608083E0915B01F09127
:1011B0005C01808180688083E0915B01F0915C013B
:1011C00080818F7D808361E08091F4010E94AB017A
:1011D00061E08091F5010E94AB0161E08091F60130
:1011E0000E94AB0160E08091F7010E94AB0160E0DA
:1011F0008091F8010E94AB0161E08091F9010E94A9
:10120000AB0161E08091FA010E94AB0161E0809145
:10121000FB010E94AB0160E08091FC010E94AB01E8
:1012200060E08091FD010E94AB018091F601893060
:1012300081F48091FB018A3061F480EA8093800020
:1012400081E18093810080E991E090938700809311
:10125000860060E083E00E94AB0160E085E00E94D0
:10126000AB0160E08DE00E94AB0160E08BE00E948A
:10127000AB0180916D00886080936D00DA9A809157
:10128000680084608093680080916D008062809324
:101290006D00DA9A80916800846080936800809184
:1012A0006B00806280936B00D89A809168008160A7
:1012B0008093680080916B00886080936B00D89A5F
:1012C0008091680081608093680088E0E1E3F1E04C
:1012D000DF011D928A95E9F787E0E2E4F1E0DF01A2
:1012E0001D928A95E9F764EF71E080E090E00E943A
:1012F0003E0386EEE82EF12C9EEEC92ED12C26E27E
:10130000A22E21E0B22E38E0632E16E444E5742EBE
:1013100003E555E4552E67E5462E3324339480913A
:101320000001803309F492C0C0912001D0912101C5
:10133000FE01E050FF4F80818C3611F134F4863687
:1013400041F0893609F448C050C0823709F04DC0D9
:101350002DC08091240190912501892B71F48091F9
:10136000220190912301892B41F4F0922501E09212
:101370002401D0922301C09222010E94B90637C0F5
:101380008091240190912501892B59F480912201AB
:1013900090912301892B29F488EE95E00E94AD05F8
:1013A00026C088EE95E00E94730521C0809124013B
:1013B00090912501892B59F480912201909123016C
:1013C000892B29F488EE95E00E94330610C088EE40
:1013D00095E00E9486050BC00E94870062E070E0E5
:1013E00080E090E00E943E03F7CF0E94990560E5FF
:1013F00070E080E090E00E943E03C230D1050CF026
:1014000012C12196D0932101C09320010CC189E41F
:1014100091E00E94020490913001992309F459C08F
:101420008E37E1F020912E0130912F01F901EA5D14
:10143000FE4F80832F5F3F4F30932F0120932E016B
:1014400065E070E080E090E00E943E0389E491E076
:101450000E94240418161906D4F241C010923001DB
:1014600010922F0110922E0180912601809331015C
:10147000809127018093320180912801B0E88B9FF1
:10148000C001112420912901822B90933401809373
:10149000330180912A01E0E88E9FC0011124209140
:1014A0002B01822B909336018093350180912C0182
:1014B000F0E88F9FC001112420912D01822B909381
:1014C000380180933701D501E62D1D92EA95E9F7A1
:1014D000B7CF813209F0B4CF30923001B1CFC09193
:1014E00031010E9487004C0162E070E080E090E0F2
:1014F0000E943E03CC3471F130F4C53409F47CC051
:10150000C63441F08AC0C23509F449C0C33509F474
:1015100073C083C0FBE58F16910464F00E94B90686
:1015200080914201863409F478C0C0934201409210
:1015300044010BC080914201853409F46EC00E94C1
:101540009905509242010093440190924601809285
:1015500045015CC0809142018C3459F0C093420136
:1015600070924401809143018F5F809343010E94F8
:10157000AE038091240190912501892B59F480912B
:10158000220190912301892B29F488EE95E00E9495
:10159000AD0529C088EE95E00E94730524C08091B6
:1015A0004201823559F0C09342017092440180910A
:1015B00043018F5F809343010E94AE038091240119
:1015C00090912501892B59F480912201909123015A
:1015D000892B29F488EE95E00E94330604C088EE3A
:1015E00095E00E948605809142018634B1F0109307
:1015F0004201109344010AC00E9499058091420162
:10160000833559F0009342010093440180914301D6
:101610008F5F809343010E94AE0360E570E080E03D
:1016200090E00E943E030E94CB0479CE5058BB2725
:10163000AA270E942E0B0C947F0C0E94710C38F08C
:101640000E94780C20F039F49F3F19F426F40C9492
:101650006E0C0EF4E095E7FB0C94680CE92F0E94E9
:10166000900C58F3BA17620773078407950720F0A8
:1016700079F4A6F50C94B20C0EF4E0950B2EBA2F6B
:10168000A02D0B01B90190010C01CA01A001112488
:10169000FF27591B99F0593F50F4503E68F11A1634
:1016A000F040A22F232F342F4427585FF3CF4695C5
:1016B00037952795A795F0405395C9F77EF41F16E7
:1016C000BA0B620B730B840BBAF09150A1F0FF0FB1
:1016D000BB1F661F771F881FC2F70EC0BA0F621F9D
:1016E000731F841F48F4879577956795B795F7958D
:1016F0009E3F08F0B0CF9395880F08F09927EE0F22
:101700009795879508950E94970B0C947F0C0E94E3
:10171000780C58F00E94710C40F029F45F3F29F0DA
:101720000C94680C51110C94B30C0C946E0C0E9428
:10173000900C68F39923B1F3552391F3951B550B46
:10174000BB27AA2762177307840738F09F5F5F4F94
:10175000220F331F441FAA1FA9F335D00E2E3AF0D3
:10176000E0E832D091505040E695001CCAF72BD0EB
:10177000FE2F29D0660F771F881FBB1F261737073C
:101780004807AB07B0E809F0BB0B802DBF01FF276E
:1017900093585F4F3AF09E3F510578F00C94680CD7
:1017A0000C94B30C5F3FE4F3983ED4F386957795A1
:1017B0006795B795F7959F5FC9F7880F911D969527
:1017C000879597F90895E1E0660F771F881FBB1F83
:1017D000621773078407BA0720F0621B730B840B30
:1017E000BA0BEE1F88F7E09508950E94FC0B6894F1
:1017F000B1110C94B30C08950E94980C88F09F5777
:1018000098F0B92F9927B751B0F0E1F0660F771F24
:10181000881F991F1AF0BA95C9F714C0B13091F01A
:101820000E94B20CB1E008950C94B20C672F782F8F
:101830008827B85F39F0B93FCCF3869577956795DF
:10184000B395D9F73EF490958095709561957F4F4B
:101850008F4F9F4F0895E89409C097FB3EF49095F1
:101860008095709561957F4F8F4F9F4F9923A9F079
:10187000F92F96E9BB279395F69587957795679508
:10188000B795F111F8CFFAF4BB0F11F460FF1BC04C
:101890006F5F7F4F8F4F9F4F16C0882311F096E9DF
:1018A00011C0772321F09EE8872F762F05C066238D
:1018B00071F096E8862F70E060E02AF09A95660F46
:1018C000771F881FDAF7880F9695879597F90895FF
:1018D00097F99F6780E870E060E008959FEF80ECE3
:1018E000089500240A941616170618060906089586
:1018F00000240A9412161306140605060895092EEC
:101900000394000C11F4882352F0BB0F40F4BF2B5A
:1019100011F460FF04C06F5F7F4F8F4F9F4F08959A
:1019200057FD9058440F551F59F05F3F71F0479590
:10193000880F97FB991F61F09F3F79F08795089575
:10194000121613061406551FF2CF4695F1DF08C094
:10195000161617061806991FF1CF869571056105B1
:1019600008940895E894BB2766277727CB0197F959
:1019700008950E94CC0C0C947F0C0E94710C38F0DE
:101980000E94780C20F0952311F00C94680C0C94B4
:101990006E0C11240C94B30C0E94900C70F3959F64
:1019A000C1F3950F50E0551F629FF001729FBB2756
:1019B000F00DB11D639FAA27F00DB11DAA1F649FF2
:1019C0006627B00DA11D661F829F2227B00DA11DA5
:1019D000621F739FB00DA11D621F839FA00D611D2B
:1019E000221F749F3327A00D611D231F849F600D4C
:1019F000211D822F762F6A2F11249F5750409AF075
:101A0000F1F088234AF0EE0FFF1FBB1F661F771F00
:101A1000881F91505040A9F79E3F510580F00C94CB
:101A2000680C0C94B30C5F3FE4F3983ED4F38695B6
:101A300077956795B795F795E7959F5FC1F7FE2B6B
:101A4000880F911D9695879597F9089597FB072E16
:101A500016F4009407D077FD09D00E943A0D07FCD8
:101A600005D03EF4909581959F4F089570956195AE
:101A70007F4F0895AA1BBB1B51E107C0AA1FBB1FC4
:101A8000A617B70710F0A61BB70B881F991F5A950A
:101A9000A9F780959095BC01CD010895EE0FFF1F29
:101AA0000590F491E02D099481E090E0F8940C9475
:061AB000590DF894FFCF70
:101AB6003001000000005C048403F303A90424043D
:041AC60002041604FC
:107E0000112484B714BE81FFF0D085E080938100F7
:107E100082E08093C00088E18093C10086E0809377
:107E2000C20080E18093C4008EE0C9D0259A86E02C
:107E300020E33CEF91E0309385002093840096BBD3
:107E4000B09BFECF1D9AA8958150A9F7CC24DD24C4
:107E500088248394B5E0AB2EA1E19A2EF3E0BF2EE7
:107E6000A2D0813461F49FD0082FAFD0023811F036
:107E7000013811F484E001C083E08DD089C08234E0
:107E800011F484E103C0853419F485E0A6D080C0E4
:107E9000853579F488D0E82EFF2485D0082F10E0AE
:107EA000102F00270E291F29000F111F8ED06801E7
:107EB0006FC0863521F484E090D080E0DECF843638
:107EC00009F040C070D06FD0082F6DD080E0C81688
:107ED00080E7D80618F4F601B7BEE895C0E0D1E017
:107EE00062D089930C17E1F7F0E0CF16F0E7DF06D8
:107EF00018F0F601B7BEE89568D007B600FCFDCFD4
:107F0000A601A0E0B1E02C9130E011968C91119780
:107F100090E0982F8827822B932B1296FA010C0160
:107F200087BEE89511244E5F5F4FF1E0A038BF0790
:107F300051F7F601A7BEE89507B600FCFDCF97BE46
:107F4000E89526C08437B1F42ED02DD0F82E2BD052
:107F50003CD0F601EF2C8F010F5F1F4F84911BD097
:107F6000EA94F801C1F70894C11CD11CFA94CF0C13
:107F7000D11C0EC0853739F428D08EE10CD085E9AC
:107F80000AD08FE07ACF813511F488E018D01DD067
:107F900080E101D065CF982F8091C00085FFFCCF94
:107FA0009093C60008958091C00087FFFCCF809118
:107FB000C00084FD01C0A8958091C6000895E0E648
:107FC000F0E098E1908380830895EDDF803219F02E
:107FD00088E0F5DFFFCF84E1DECF1F93182FE3DFCA
:107FE0001150E9F7F2DF1F91089580E0E8DFEE27F6
:047FF000FF270994CA
:027FFE00040479
:0400000300007E007B
:00000001FF
